:020000040800F2
:1000000000500020690F00088D0D0008930D0008B6
:10001000990D00089F0D0008A50D000800000000C4
:10002000000000000000000000000000AB0D000810
:10003000B70D000800000000C30D0008CF0D000838
:10004000B10F0008B10F0008B10F0008B10F000890
:10005000B10F0008B10F0008B10F0008B10F000880
:10006000B10F0008B10F0008B10F0008B10F000870
:10007000B10F0008B10F0008B10F0008B10F000860
:10008000B10F0008B10F0008B10F0008B10F000850
:10009000B10F0008B10F0008B10F0008B10F000840
:1000A000B10F0008B10F0008B10F0008B10F000830
:1000B000B10F0008B10F0008B10F0008B10F000820
:1000C000B10F0008B10F0008B10F0008B10F000810
:1000D000B10F0008B10F0008B10F0008B10F000800
:1000E000B10F0008B10F0008B10F000800000000B8
:1000F0000000000000000000000000000000000000
:0C01000000000000000000005FF808F1A3
:1001100010B5054C237833B9044B13B10448AFF341
:1001200000800123237010BDD401002000000000D6
:100130001C65000808B5034B1BB103490348AFF326
:10014000008008BD00000000D80100201C650008E8
:10015000034613F8012B002AFBD1181A0138704707
:1001600081F0004102E000BF83F0004330B54FEA68
:1001700041044FEA430594EA050F08BF90EA020FD5
:100180001FBF54EA000C55EA020C7FEA645C7FEA68
:10019000655C00F0E2804FEA5454D4EB5555B8BF8B
:1001A0006D420CDD2C4480EA020281EA030382EAFC
:1001B000000083EA010180EA020281EA0303362D8E
:1001C00088BF30BD11F0004F4FEA01314FF4801C61
:1001D0004CEA113102D0404261EB410113F0004F73
:1001E0004FEA03334CEA133302D0524263EB43032A
:1001F00094EA050F00F0A780A4F10104D5F1200EC8
:100200000DDB02FA0EFC22FA05F2801841F1000122
:1002100003FA0EF2801843FA05F359410EE0A5F1F6
:1002200020050EF1200E012A03FA0EFC28BF4CF027
:10023000020C43FA05F3C01851EBE37101F00045DD
:1002400007D54FF0000EDCF1000C7EEB00006EEBEA
:100250000101B1F5801F1BD3B1F5001F0CD3490874
:100260005FEA30004FEA3C0C04F101044FEA4452CB
:1002700012F5800F80F09A80BCF1004F08BF5FEA52
:10028000500C50F1000041EB045141EA050130BD32
:100290005FEA4C0C404141EB0101013C28BFB1F544
:1002A000801FE9D291F0000F04BF01460020B1FA8F
:1002B00081F308BF2033A3F10B03B3F120020CDA62
:1002C0000C3208DD02F1140CC2F10C0201FA0CF040
:1002D00021FA02F10CE002F11402D8BFC2F1200CA5
:1002E00001FA02F120FA0CFCDCBF41EA0C0190405B
:1002F000E41AA2BF01EB0451294330BD6FEA0404A4
:100300001F3C1CDA0C340EDC04F11404C4F120028E
:1003100020FA04F001FA02F340EA030021FA04F3A0
:1003200045EA030130BDC4F10C04C4F1200220FAF7
:1003300002F001FA04F340EA0300294630BD21FA35
:1003400004F0294630BD94F0000F83F4801306BFFB
:1003500081F480110134013D4EE77FEA645C18BFEF
:100360007FEA655C29D094EA050F08BF90EA020F86
:1003700005D054EA000C04BF1946104630BD91EA7E
:10038000030F1EBF0021002030BD5FEA545C05D181
:100390004000494128BF41F0004130BD14F58004C0
:1003A0003CBF01F5801130BD01F0004545F0FE4134
:1003B00041F470014FF0000030BD7FEA645C1ABF69
:1003C000194610467FEA655C1CBF0B46024650EAA0
:1003D000013406BF52EA033591EA030F41F40021CC
:1003E00030BD00BF90F0000F04BF0021704730B552
:1003F0004FF4806404F132044FF000054FF0000127
:1004000050E700BF90F0000F04BF0021704730B5E7
:100410004FF4806404F1320410F0004548BF4042BC
:100420004FF000013EE700BF42004FEAE2014FEA11
:1004300031014FEA02701FBF12F07F4393F07F4FEC
:1004400081F06051704732F07F4208BF704793F0EF
:100450007F4F04BF41F40021704730B54FF4607402
:1004600001F0004521F000411CE700BF50EA010205
:1004700008BF704730B54FF000050AE050EA0102AE
:1004800008BF704730B511F0004502D5404261EB1E
:1004900041014FF4806404F132045FEA915C3FF45F
:1004A000D8AE4FF003025FEADC0C18BF03325FEAFC
:1004B000DC0C18BF033202EBDC02C2F1200300FAAD
:1004C00003FC20FA02F001FA03FE40EA0E0021FAD2
:1004D00002F11444BDE600BF70B54FF0FF0C4CF4C0
:1004E000E06C1CEA11541DBF1CEA135594EA0C0F72
:1004F00095EA0C0F00F0DEF82C4481EA030621EAAD
:100500004C5123EA4C5350EA013518BF52EA0335E7
:1005100041F4801143F4801338D0A0FB02CE4FF099
:100520000005E1FB02E506F00042E0FB03E54FF0C9
:100530000006E1FB03569CF0000F18BF4EF0010EC1
:10054000A4F1FF04B6F5007F64F5407404D25FEABD
:100550004E0E6D4146EB060642EAC62141EA555170
:100560004FEAC52040EA5E504FEACE2EB4F1FD0CB2
:1005700088BFBCF5E06F1ED8BEF1004F08BF5FEA30
:10058000500E50F1000041EB045170BD06F00046E2
:1005900046EA010140EA020081EA0301B4EB5C048F
:1005A000C2BFD4EB0C0541EA045170BD41F4801187
:1005B0004FF0000E013C00F3AB8014F1360FDEBFAC
:1005C000002001F0004170BDC4F10004203C35DA88
:1005D0000C341BDC04F11404C4F1200500FA05F30B
:1005E00020FA04F001FA05F240EA020001F00042AC
:1005F00021F0004110EBD37021FA04F642EB060122
:100600005EEA430E08BF20EAD37070BDC4F10C044B
:10061000C4F1200500FA04F320FA05F001FA04F20F
:1006200040EA020001F0004110EBD37041F10001FB
:100630005EEA430E08BF20EAD37070BDC4F1200506
:1006400000FA05F24EEA020E20FA04F301FA05F26E
:1006500043EA020321FA04F001F0004121FA04F216
:1006600020EA020000EBD3705EEA430E08BF20EAE6
:10067000D37070BD94F0000F0FD101F00046400020
:1006800041EB010111F4801F08BF013CF7D041EAA2
:10069000060195F0000F18BF704703F000465200A6
:1006A00043EB030313F4801F08BF013DF7D043EA77
:1006B0000603704794EA0C0F0CEA135518BF95EA2D
:1006C0000C0F0CD050EA410618BF52EA4306D1D1B4
:1006D00081EA030101F000414FF0000070BD50EAD3
:1006E000410606BF1046194652EA430619D094EA5D
:1006F0000C0F02D150EA013613D195EA0C0F05D147
:1007000052EA03361CBF104619460AD181EA03019A
:1007100001F0004141F0FE4141F470014FF0000052
:1007200070BD41F0FE4141F4780170BD70B54FF0ED
:10073000FF0C4CF4E06C1CEA11541DBF1CEA13556D
:1007400094EA0C0F95EA0C0F00F0A7F8A4EB05044F
:1007500081EA030E52EA03354FEA013100F0888046
:100760004FEA03334FF0805545EA131343EA12630F
:100770004FEA022245EA111545EA10654FEA0026C4
:100780000EF000419D4208BF964244F1FD0404F57D
:10079000407402D25B084FEA3202B61A65EB0305D9
:1007A0005B084FEA32024FF480104FF4002CB6EB96
:1007B000020E75EB030E22BFB61A754640EA0C0016
:1007C0005B084FEA3202B6EB020E75EB030E22BF56
:1007D000B61A754640EA5C005B084FEA3202B6EB97
:1007E000020E75EB030E22BFB61A754640EA9C0056
:1007F0005B084FEA3202B6EB020E75EB030E22BF26
:10080000B61A754640EADC0055EA060E18D04FEAE3
:10081000051545EA16754FEA06164FEAC30343EA83
:1008200052734FEAC2025FEA1C1CC0D111F4801F50
:100830000BD141EA00014FF000004FF0004CB6E749
:1008400011F4801F04BF01430020B4F1FD0C88BFE8
:10085000BCF5E06F3FF6AFAEB5EB030C04BFB6EBF3
:10086000020C5FEA500C50F1000041EB045170BDE6
:100870000EF0004E4EEA113114EB5C04C2BFD4EB13
:100880000C0541EA045170BD41F480114FF0000E97
:10089000013C90E645EA060E8DE60CEA135594EA13
:1008A0000C0F08BF95EA0C0F3FF43BAF94EA0C0F16
:1008B0000AD150EA01347FF434AF95EA0C0F7FF48B
:1008C00025AF104619462CE795EA0C0F06D152EADF
:1008D00003353FF4FDAE1046194622E750EA4106C3
:1008E00018BF52EA43067FF4C5AE50EA41047FF4D4
:1008F0000DAF52EA43057FF4EBAE12E74FF0FF3C39
:1009000006E000BF4FF0010C02E000BF4FF0010C09
:100910004DF804CD4FEA410C7FEA6C5C4FEA430C82
:1009200018BF7FEA6C5C1BD001B050EA410C0CBFD1
:1009300052EA430C91EA030F02BF90EA020F002033
:10094000704710F1000F91EA030F58BF994208BF9A
:1009500090422CBFD8176FEAE37040F00100704757
:100960004FEA410C7FEA6C5C02D150EA013C07D1AE
:100970004FEA430C7FEA6C5CD6D152EA033CD3D0F9
:100980005DF8040B704700BF8446104662468C46F3
:100990001946634600E000BF01B5FFF7B7FF002826
:1009A00048BF10F1000F01BD4DF808EDFFF7F4FF4F
:1009B0000CBF012000205DF808FB00BF4DF808EDDA
:1009C000FFF7EAFF34BF012000205DF808FB00BFFD
:1009D0004DF808EDFFF7E0FF94BF012000205DF81F
:1009E00008FB00BF4DF808EDFFF7CEFF94BF0120D4
:1009F00000205DF808FB00BF4DF808EDFFF7C4FFCD
:100A000034BF012000205DF808FB00BF4FEA410C15
:100A10007FEA6C5C02D150EA013C0AD14FEA430CF8
:100A20007FEA6C5C02D152EA033C02D14FF0000035
:100A300070474FF0010070474FEA410212F5001273
:100A400015D211D56FF47873B3EB625212D94FEA15
:100A5000C12343F0004343EA505311F0004F23FAFF
:100A600002F018BF404270474FF00000704750EA54
:100A7000013005D111F0004008BF6FF00040704711
:100A80004FF00000704700BF4A0011D212F500126B
:100A900011D20DD56FF47873B3EB62520ED44FEAD6
:100AA000C12343F0004343EA505323FA02F0704756
:100AB0004FF00000704750EA013002D14FF0FF3094
:100AC00070474FF0000070474FEA4102B2F1E04337
:100AD00024BFB3F5001CDCF1FE5C0DD901F0004C25
:100AE0004FEAC0024CEA5070B2F1004F40EB830075
:100AF00008BF20F00100704711F0804F21D113F1A1
:100B00003872BCBF01F00040704741F480114FEAD9
:100B10005252C2F11802C2F1200C10FA0CF320FA62
:100B200002F018BF40F001004FEAC1234FEAD3237F
:100B300003FA0CFC40EA0C0023FA02F34FEA4303E9
:100B4000CCE77FEA625307D150EA01331EBF4FF072
:100B5000FE4040F44000704701F0004040F0FE408D
:100B600040F40000704700BF38B505460C4600222F
:100B7000002328462146FFF721FF28B928462146B1
:100B8000BDE8384000F00AB8284604F1004100F002
:100B900005F8404261EB410138BD00BFD0B50022ED
:100BA0000B4B06460F46FFF797FCFFF76DFF044619
:100BB000FFF718FC0022074BFFF78EFC02460B469E
:100BC00030463946FFF7D0FAFFF75EFF2146D0BD29
:100BD0000000F03D0000F04180B500AF00F0EAF900
:100BE00000F00EF800F04EF84FF40051034800F00A
:100BF000E7FC4FF47A7000F03FFAF5E7001001408F
:100C000080B590B000AF07F11803282200211846E4
:100C100002F05FF83B1D00221A605A609A60DA60A9
:100C20001A610223BB610123BB621023FB62022312
:100C30007B630023BB634FF46013FB6307F118036E
:100C4000184600F0D7FC0346002B01D000F066F8F0
:100C50000F237B600223BB600023FB604FF48063A3
:100C60003B6100237B613B1D0221184600F044FFDD
:100C70000346002B01D000F051F800BF4037BD46BD
:100C800080BD000080B588B000AF07F110030022DE
:100C90001A605A609A60DA601E4B9B691D4A43F0E5
:100CA000100393611B4B9B6903F01003FB60FB680F
:100CB000184B9B69174A43F020039361154B9B69BE
:100CC00003F02003BB60BB68124B9B69114A43F0E1
:100CD000040393610F4B9B6903F004037B607B6803
:100CE00000224FF400510C4800F052FC4FF4005326
:100CF0003B6101237B610023BB610223FB6107F1A0
:100D000010031946044800F0BFFA00BF2037BD4663
:100D100080BD00BF001002400010014080B400AF51
:100D200072B600BFFEE7000080B485B000AF154B7F
:100D30009B69144A43F001039361124B9B6903F0D2
:100D40000103BB60BB680F4BDB690E4A43F0805365
:100D5000D3610C4BDB6903F080537B607B680A4BEB
:100D60005B68FB60FB6823F0E063FB60FB6843F0BB
:100D70000073FB60044AFB68536000BF1437BD4634
:100D800080BC7047001002400000014080B400AFFA
:100D9000FEE780B400AFFEE780B400AFFEE780B4AA
:100DA00000AFFEE780B400AFFEE780B400AF00BF45
:100DB000BD4680BC704780B400AF00BFBD4680BC5C
:100DC000704780B400AF00BFBD4680BC704780B59F
:100DD00000AF00F035F900BF80BD80B400AF012343
:100DE0001846BD4680BC704780B582B000AF7860C1
:100DF000396001F0C1FF034616221A604FF0FF333D
:100E000018460837BD4680BD80B582B000AF786017
:100E10004FF0FF317868FFF7E7FFFEE780B586B057
:100E200000AFF860B9607A6000237B610AE0AFF33D
:100E300000800146BB685A1CBA60CAB21A707B694E
:100E400001337B617A697B689A42F0DB7B681846E4
:100E50001837BD4680BD80B586B000AFF860B96078
:100E60007A6000237B6109E0BB685A1CBA601B787A
:100E70001846AFF300807B6901337B617A697B6838
:100E80009A42F1DB7B6818461837BD4680BD80B4B6
:100E900083B000AF78604FF0FF3318460C37BD4683
:100EA00080BC704780B483B000AF786039603B6825
:100EB0004FF400525A60002318460C37BD4680BCE0
:100EC000704780B483B000AF7860012318460C37B8
:100ED000BD4680BC704780B485B000AFF860B96093
:100EE0007A60002318461437BD4680BC7047000066
:100EF00080B586B000AF7860144A154BD31A7B6179
:100F00007B693B61134B1B68002B02D1114B124ACA
:100F10001A60104B1A687B6813443A699A4207D2E8
:100F200001F02AFF03460C221A604FF0FF3309E05C
:100F3000084B1B68FB60074B1A687B681344054A23
:100F40001360FB6818461837BD4680BD005000206E
:100F500000040000F00100204803002080B400AF2E
:100F600000BFBD4680BC7047FFF7F8FF0B480C4937
:100F70000C4A002302E0D458C4500433C4188C42F5
:100F8000F9D3094A094C002301E013600432A2425C
:100F9000FBD301F0F7FEFFF71FFE704700000020B3
:100FA000D401002090690008D401002044030020EF
:100FB000FEE7000080B500AF084B1B68074A43F00E
:100FC00010031360032000F02BF90F2000F008F845
:100FD000FFF7AAFE0023184680BD00BF0020024094
:100FE00080B582B000AF7860124B1A68124B1B7844
:100FF00019464FF47A73B3FBF1F3B2FBF3F31846DF
:1010000000F035F90346002B01D001230EE07B6888
:101010000F2B0AD8002279684FF0FF3000F00BF94F
:10102000064A7B681360002300E001231846083756
:10103000BD4680BD00000020080000200400002004
:1010400080B400AF054B1B781A46054B1B68134450
:10105000034A136000BFBD4680BC704708000020F3
:10106000F401002080B400AF024B1B681846BD4657
:1010700080BC7047F401002080B584B000AF786078
:10108000FFF7F0FFB8607B68FB60FB68B3F1FF3FE0
:1010900005D00A4B1B781A46FB681344FB6000BF5F
:1010A000FFF7E0FF0246BB68D31AFA689A42F7D806
:1010B00000BF00BF1037BD4680BD00BF0800002044
:1010C00080B485B000AF78607B6803F00703FB60F5
:1010D0000C4BDB68BB60BA684FF6FF031340BB6084
:1010E000FB681A02BB68134343F0BF6343F4003349
:1010F000BB60044ABB68D36000BF1437BD4680BCE8
:10110000704700BF00ED00E080B400AF044BDB6827
:101110001B0A03F007031846BD4680BC704700BF9A
:1011200000ED00E080B483B000AF03463960FB718E
:1011300097F90730002B0ADB3B68DAB20C4997F9C4
:1011400007301201D2B20B4483F800230AE03B6857
:10115000DAB20849FB7903F00F03043B1201D2B263
:101160000B441A7600BF0C37BD4680BC704700BFE9
:1011700000E100E000ED00E080B489B000AFF8606D
:10118000B9607A60FB6803F00703FB61FB69C3F198
:101190000703042B28BF0423BB61FB690433062B20
:1011A00002D9FB69033B00E000237B614FF0FF3273
:1011B000BB6902FA03F3DA43BB681A407B699A40C1
:1011C0004FF0FF317B6901FA03F3D9437B680B4091
:1011D000134318462437BD4680BC704780B582B0A3
:1011E00000AF78607B68013BB3F1807F01D30123BE
:1011F0000FE00A4A7B68013B53600F214FF0FF303C
:10120000FFF790FF054B00229A60044B07221A60FB
:10121000002318460837BD4680BD00BF10E000E03F
:1012200080B582B000AF78607868FFF749FF00BFF3
:101230000837BD4680BD80B586B000AF0346B960B3
:101240007A60FB7300237B61FFF75EFF78617A6849
:10125000B9687869FFF790FF024697F90F30114699
:101260001846FFF75FFF00BF1837BD4680BD80B549
:1012700082B000AF78607868FFF7B0FF0346184689
:101280000837BD4680BD000080B48BB000AF7860E9
:10129000396000237B6200233B6269E101227B6AA3
:1012A00002FA03F3FB613B681B68FA691340BB61F8
:1012B000BA69FB699A4240F058813B685B689A4A78
:1012C00093425ED0984A934275D8984A934258D038
:1012D000964A93426FD8964A934252D0944A934288
:1012E00069D8944A93424CD0924A934263D8924A26
:1012F000934246D0904A93425DD8122B2AD8122BA3
:1013000059D801A252F823F0831300085D13000896
:101310006F130008B1130008B7130008B7130008D3
:10132000B7130008B7130008B7130008B713000875
:10133000B7130008B7130008B7130008B713000865
:10134000B7130008B7130008B713000865130008A7
:1013500079130008794A934213D02CE03B68DB688C
:101360003B6229E03B68DB6804333B6224E03B6876
:10137000DB6808333B621FE03B68DB680C333B6291
:101380001AE03B689B68002B02D104233B6213E008
:101390003B689B68012B05D108233B627B68FA6997
:1013A0001A6109E008233B627B68FA695A6103E02D
:1013B00000233B6200E000BFBB69FF2B01D87B68C4
:1013C00001E07B6804337B61BB69FF2B02D87B6A39
:1013D0009B0002E07B6A083B9B003B617B691A68CB
:1013E0000F213B6901FA03F3DB431A40396A3B6979
:1013F00001FA03F31A437B691A603B685B6803F0E8
:101400008053002B00F0B1804D4B9B694C4A43F058
:10141000010393614A4B9B6903F00103BB60BB6806
:10142000484A7B6A9B08023352F82330FB607B6A90
:1014300003F003039B000F2202FA03F3DB43FA6875
:101440001340FB607B68404A934213D07B683F4A5D
:1014500093420DD07B683E4A934207D07B683D4A59
:10146000934201D1032306E0042304E0022302E0B7
:10147000012300E000237A6A02F003029200934005
:10148000FA681343FB602F497B6A9B080233FA68B2
:1014900041F823203B685B6803F48013002B06D0DF
:1014A0002D4B9A682C49BB6913438B6006E02A4B8D
:1014B0009A68BB69DB43284913408B603B685B68D3
:1014C00003F40013002B06D0234BDA682249BB69D2
:1014D0001343CB6006E0204BDA68BB69DB431E494F
:1014E0001340CB603B685B6803F40033002B06D0ED
:1014F000194B5A681849BB6913434B6006E0164BF9
:101500005A68BB69DB43144913404B603B685B6816
:1015100003F48033002B21D00F4B1A680E49BB69AE
:1015200013430B6021E000BF0000321000003110B7
:101530000000221000002110000012100000111005
:10154000001002400000014000080140000C014072
:101550000010014000140140000401400B4B1A68C8
:10156000BB69DB43094913400B607B6A01337B6233
:101570003B681A687B6A22FA03F3002B7FF48EAE75
:1015800000BF00BF2C37BD4680BC7047000401403F
:1015900080B483B000AF78600B467B8013467B70CD
:1015A0007B78002B03D07A887B681A6103E07B8804
:1015B0001A047B681A6100BF0C37BD4680BC7047B7
:1015C00080B485B000AF78600B467B807B68DB68B9
:1015D000FB607A88FB6813401A04FB68D9437B8858
:1015E0000B401A437B681A6100BF1437BD4680BCAC
:1015F0007047000080B586B000AF78607B68002B34
:1016000001D1012372E27B681B6803F00103002B08
:1016100000F08780924B5B6803F00C03042B0CD026
:101620008F4B5B6803F00C03082B12D18C4B5B686B
:1016300003F48033B3F5803F0BD1894B1B6803F46F
:101640000033002B6CD07B685B68002B68D10123D2
:101650004CE27B685B68B3F5803F06D1804B1B682A
:101660007F4A43F4803313602EE07B685B68002B75
:101670000CD17B4B1B687A4A23F480331360784B80
:101680001B68774A23F4802313601DE07B685B6846
:10169000B3F5A02F0CD1724B1B68714A43F4802321
:1016A00013606F4B1B686E4A43F4803313600BE08A
:1016B0006B4B1B686A4A23F480331360684B1B68CA
:1016C000674A23F4802313607B685B68002B13D088
:1016D000FFF7C8FC386108E0FFF7C4FC02463B692D
:1016E000D31A642B01D9032300E25D4B1B6803F47A
:1016F0000033002BF0D014E0FFF7B4FC386108E0B1
:10170000FFF7B0FC02463B69D31A642B01D90323CF
:10171000ECE1534B1B6803F40033002BF0D100E0E5
:1017200000BF7B681B6803F00203002B63D04C4BA7
:101730005B6803F00C03002B0BD0494B5B6803F094
:101740000C03082B1CD1464B5B6803F48033002B41
:1017500016D1434B1B6803F00203002B05D07B68B6
:101760001B69012B01D00123C0E13D4B1B6823F015
:10177000F8027B685B69DB00394913430B603AE090
:101780007B681B69002B20D0364B01221A60FFF7C3
:1017900069FC386108E0FFF765FC02463B69D31A33
:1017A000022B01D90323A1E12D4B1B6803F0020397
:1017B000002BF0D02A4B1B6823F0F8027B685B6992
:1017C000DB00274913430B6015E0264B00221A600B
:1017D000FFF748FC386108E0FFF744FC02463B692C
:1017E000D31A022B01D9032380E11D4B1B6803F0A0
:1017F0000203002BF0D17B681B6803F00803002B69
:101800003AD07B689B69002B19D0174B01221A60D4
:10181000FFF728FC386108E0FFF724FC02463B692B
:10182000D31A022B01D9032360E10D4B5B6A03F04D
:101830000203002BF0D0012000F09CFA1CE00A4BC0
:1018400000221A60FFF70EFC38610FE0FFF70AFC78
:1018500002463B69D31A022B08D9032346E100BF95
:10186000001002400000424280044242924B5B6AF8
:1018700003F00203002BE9D17B681B6803F004032B
:10188000002B00F0A6800023FB758B4BDB6903F077
:101890008053002B0DD1884BDB69874A43F080537E
:1018A000D361854BDB6903F08053BB60BB680123C8
:1018B000FB75824B1B6803F48073002B18D17F4BA0
:1018C0001B687E4A43F480731360FFF7CBFB3861DB
:1018D00008E0FFF7C7FB02463B69D31A642B01D926
:1018E000032303E1754B1B6803F48073002BF0D0D6
:1018F0007B68DB68012B06D16F4B1B6A6E4A43F095
:10190000010313622DE07B68DB68002B0CD16A4B6E
:101910001B6A694A23F001031362674B1B6A664A1C
:1019200023F0040313621CE07B68DB68052B0CD1F9
:10193000614B1B6A604A43F0040313625E4B1B6AEF
:101940005D4A43F0010313620BE05B4B1B6A5A4A8A
:1019500023F001031362584B1B6A574A23F0040318
:1019600013627B68DB68002B15D0FFF77BFB3861C7
:101970000AE0FFF777FB02463B69D31A41F288324F
:10198000934201D90323B1E04B4B1B6A03F00203DE
:10199000002BEED014E0FFF765FB38610AE0FFF79B
:1019A00061FB02463B69D31A41F28832934201D966
:1019B00003239BE0404B1B6A03F00203002BEED194
:1019C000FB7D012B05D13C4BDB693B4A23F0805367
:1019D000D3617B68DB69002B00F08780364B5B6846
:1019E00003F00C03082B61D07B68DB69022B46D126
:1019F000334B00221A60FFF735FB386108E0FFF730
:101A000031FB02463B69D31A022B01D903236DE057
:101A1000294B1B6803F00073002BF0D17B681B6A15
:101A2000B3F5803F08D1244B5B6823F400327B6818
:101A30009B68214913434B601F4B5B6823F474126E
:101A40007B68196A7B685B6A0B431B4913434B60D5
:101A50001B4B01221A60FFF705FB386108E0FFF716
:101A600001FB02463B69D31A022B01D903233DE057
:101A7000114B1B6803F00073002BF0D035E0104BC6
:101A800000221A60FFF7EEFA386108E0FFF7EAFA81
:101A900002463B69D31A022B01D9032326E0064BE9
:101AA0001B6803F00073002BF0D11EE07B68DB693C
:101AB000012B07D1012319E0001002400070004003
:101AC000600042420B4B5B68FB60FB6803F48032B2
:101AD0007B681B6A9A4206D1FB6803F470127B682C
:101AE0005B6A9A4201D0012300E0002318461837B0
:101AF000BD4680BD0010024080B584B000AF786064
:101B000039607B68002B01D10123D0E06A4B1B6850
:101B100003F007033A689A4210D9674B1B6823F019
:101B2000070265493B6813430B60634B1B6803F076
:101B300007033A689A4201D00123B8E07B681B682A
:101B400003F00203002B20D07B681B6803F0040322
:101B5000002B05D0594B5B68584A43F4E06353604F
:101B60007B681B6803F00803002B05D0534B5B68B0
:101B7000524A43F460535360504B5B6823F0F002C9
:101B80007B689B684D4913434B607B681B6803F07F
:101B90000103002B40D07B685B68012B07D1474BCA
:101BA0001B6803F40033002B15D101237FE07B6811
:101BB0005B68022B07D1414B1B6803F00073002BBD
:101BC00009D1012373E03D4B1B6803F00203002B96
:101BD00001D101236BE0394B5B6823F003027B6882
:101BE0005B68364913434B60FFF73CFAF8600AE044
:101BF000FFF738FA0246FB68D31A41F28832934263
:101C000001D9032353E02D4B5B6803F00C027B6882
:101C10005B689B009A42EBD1274B1B6803F00703DC
:101C20003A689A4210D2244B1B6823F007022249DB
:101C30003B6813430B60204B1B6803F007033A68B3
:101C40009A4201D0012332E07B681B6803F0040351
:101C5000002B08D0194B5B6823F4E0627B68DB68DB
:101C6000164913434B607B681B6803F00803002B85
:101C700009D0124B5B6823F460527B681B69DB0060
:101C80000E4913434B6000F021F802460B4B5B6892
:101C90001B0903F00F030A49CB5C22FA03F3094A3C
:101CA0001360094B1B681846FFF79AF90023184682
:101CB0001037BD4680BD00BF00200240001002402A
:101CC00038650008000000200400002080B487B0C0
:101CD00000AF0023FB600023BB6000237B61002377
:101CE0007B6000233B611E4B5B68FB60FB6803F07D
:101CF0000C03042B02D0082B03D027E0194B3B61C7
:101D000027E0FB689B0C03F00F03174AD35C7B6052
:101D1000FB6803F48033002B10D0114B5B685B0C25
:101D200003F00103114AD35CBB607B680D4A03FBDF
:101D300002F2BB68B2FBF3F37B6104E07B680C4A00
:101D400002FB03F37B617B693B6102E0054B3B6176
:101D500000BF3B6918461C37BD4680BC704700BFBA
:101D60000010024000127A0048650008586500081B
:101D700000093D0080B485B000AF78600A4B1B6855
:101D80000A4AA2FB03235B0A7A6802FB03F3FB60A7
:101D900000BFFB685A1EFA60002BF9D100BF00BFDC
:101DA0001437BD4680BC704700000020D34D621040
:101DB000002B2DE9F0471F46BBBF03F100431F4630
:101DC00000232D2388B01446129A109D1370149B83
:101DD000DDF84CA023F02008B8F1460F05D0B8F18B
:101DE000450F00D10135022300E0032307AA049226
:101DF00006AACDE902A2CDE9003522463B4601F014
:101E000087F8B8F1470F064602D1119BDB0722D5B0
:101E1000B8F1460F06EB050910D13378302B0AD103
:101E20000022002320463946FEF7BEFD18B9C5F151
:101E30000105CAF80050DAF8003099440022002366
:101E400020463946FEF7B0FD08B1CDF81C9030228F
:101E5000079B4B4507D33046079B159A9B1B136086
:101E600008B0BDE8F087591C07911A70F0E70346E7
:101E7000F7B5002903F8022BB6BF2D222B224942C9
:101E8000092942702ADD0DF1070217460A2691FB47
:101E9000F6F5944606FB151430340CF8014C0C464C
:101EA000632C294602F1FF32F1DC3031ACF102043F
:101EB00002F8011C2246411CBA420AD30DF1090264
:101EC000A2EB0C02BC4288BF00221344181A03B0D4
:101ED000F0BD12F8015B01F8015FEDE7302330310E
:101EE0008370C170031DF1E72DE9F04F91B00C46EE
:101EF000DDF8688016461F46054600F0F3FE0368CD
:101F000018460993FEF724F900230E93D8F8003001
:101F10000A90073323F0070303F1080294F818909E
:101F2000D4F800B0C8F80020D3E900A852464346D0
:101F3000C4E9122328F000430B934FF0FF325046C0
:101F40009C4B0B99FEF762FD70BB4FF0FF32504681
:101F5000984B0B99FEF73CFD30BB00220023504606
:101F60004146FEF72BFD10B12D2384F84330924AF1
:101F7000924BB9F1470F94BF9046984603234FF018
:101F8000000A23612BF004032360334621462846D0
:101F900000970FAA00F0D6F9013040F090804FF082
:101FA000FF3011B0BDE8F08F5246434650464146DF
:101FB000FEF72CFD48B1B8F1000FB8BF2D23804AC1
:101FC000B8BF84F843307F4BD3E7636809F0DF0183
:101FD0005A1C42D106236360002206920EAACDE964
:101FE00004920DAA4BF4806303920DF13302CDE904
:101FF00001322360636852460093284643460B91A2
:10200000FFF7D6FE0B99804647290D9908D1C81CC9
:1020100002DB6368994240DDA9F102095FFA89F9A0
:10202000B9F1650F1FD84A46013904F150000D91EE
:10203000FFF71DFF0E9A82461318012A236102DC66
:102040002268D20701D5013323619DF83330002B7C
:102050009BD02D2384F8433097E74729BCD1002B30
:10206000BAD10123B7E7B9F1660F18D10029636827
:102070000BDD216113B92268D00702D501330B446F
:1020800023614FF0000AA165DFE713B92268D20788
:1020900001D50233F4E70123F2E74FF067090E9B05
:1020A000994205DB23682161D807EAD54B1CE7E795
:1020B0000029CCBF0122C1F102021344E0E72368EA
:1020C0005A0507D42369424631462846B8470130AD
:1020D0002BD164E7B9F1650F40F2DD80D4E912013C
:1020E00000220023FEF760FC002833D00123314694
:1020F0002846354AB84701303FF451AFDDE90D239A
:102100009A4202DB2368D8070FD5DDE9092331465F
:102110002846B84701303FF442AF4FF0000804F1C1
:102120001A090E9B013B434509DC23689B0700F11C
:102130000481E0680F9B9842B8BF184631E701233D
:102140004A4631462846B84701303FF428AF08F1E7
:102150000108E6E70D9B002B38DC012331462846B9
:10216000194AB84701303FF41AAFDDE90D32134385
:1021700002D12368D907D8D5DDE90923314628469D
:10218000B84701303FF40BAF4FF0000904F11A0AD1
:102190000D9B5B424B4501DC0E9B94E701235246AD
:1021A00031462846B84701303FF4F9AE09F101093C
:1021B000EEE700BFFFFFEF7F5A6500085E6500088D
:1021C00062650008666500086A6500080E9AA36DDE
:1021D0009A42A8BF1A46002A914637DC4FF0000BFE
:1021E00029EAE97904F11A02D4F858A0AAEB090304
:1021F0005B4533DCDDE90D239A423BDB2368DA07DC
:1022000038D4DDE90D32A2EB0309A2EB0A029145B5
:10221000A8BF9146B9F1000F34DC4FF0000829EA5D
:10222000E97904F11A0ADDE90D239B1AA3EB0903EE
:1022300043457FF77AAF0123524631462846B847D7
:1022400001303FF4ACAE08F10108ECE7134631462B
:1022500042462846B8470130C0D1A0E601233146A6
:1022600028460B92B84701303FF499AE0B9A0BF118
:10227000010BB9E73146DDE909232846B8470130AB
:10228000BFD18CE64B463146284608EB0A02B847D8
:102290000130C2D183E60E9A012A01DCDB0739D571
:1022A0000123424631462846B84701303FF477AE15
:1022B000DDE9092331462846B84701303FF46FAEC7
:1022C000D4E9120100220023DDF83890FEF76CFB00
:1022D000D8B909F1FF3308F1010231462846B84761
:1022E00001300ED15BE601234A4631462846B84705
:1022F00001303FF454AE08F101080E9B013B434509
:10230000F1DC534604F15002DEE64FF0000804F120
:102310001A09F2E701234246DFE701234A46314624
:102320002846B84701303FF43AAE08F10108E368A7
:102330000F995B1A4345F0DCFBE64FF0000804F10F
:102340001909F4E72DE9F047164699468A680B69A2
:1023500007469342B8BF1346336091F843200C46BA
:10236000DDF820800AB1013333602368990642BF4B
:10237000336802333360256815F0060506D104F191
:10238000190AE36832689B1AAB422BDC94F84320AD
:10239000131E226818BF0123920630D449463846DE
:1023A00004F14302C047013023D02368226903F0BF
:1023B0000603042B14BF002533684FF0000608BF46
:1023C000E56804F11A0408BFED1A54F8123C08BF7E
:1023D00025EAE5759342C4BF9B1AED18B5421AD1A0
:1023E000002008E00123524649463846C0470130E4
:1023F00003D14FF0FF30BDE8F0870135C1E7302051
:10240000E11881F843005A1C94F845102244023325
:1024100082F84310C2E70123224649463846C047A6
:102420000130E6D00136D9E72DE9FF470F7E91460E
:10243000782F80460C469A460C9D01F1430207D83E
:10244000622F0AD8002F00F0D580582F00F0C180ED
:1024500004F1420584F842703AE0A7F16303152BBA
:10246000F6D801A151F823F0C1240008D5240008B2
:102470005124000851240008512400085124000868
:10248000D5240008512400085124000851240008D4
:1024900051240008DB2500080125000895250008C7
:1024A0005124000851240008FD250008512400088B
:1024B0000125000851240008512400089D2500082A
:1024C0002B681A1D1B682A6004F1420584F842300B
:1024D0000123A0E020682B68070603F104012960AE
:1024E00001D51E6803E04606FBD5B3F90060002E57
:1024F00003DA2D23764284F843300A23594812E048
:102500002B682068191D2960050601D51E6802E0A8
:102510004106FBD51E886F2F0CBF08230A235148A4
:10252000002184F843106568002DA8BF2168A560CC
:10253000A4BF21F0040121600EB9002D4BD0154637
:10254000B6FBF3F103FB1167C75D05F8017D374664
:10255000BB420E46F4D9082B0BD12368DE0708D501
:10256000236961689942DEBF302305F8013C05F11B
:10257000FF35521B22614B4621464046CDF800A054
:1025800003AAFFF7DFFE01304AD14FF0FF3004B05D
:10259000BDE8F087236843F02003236078273248A2
:1025A00084F84570236829681F0651F8046B02D42B
:1025B0005F0648BFB6B2DF0748BF43F0200329607B
:1025C00048BF23601EB9236823F020032360102333
:1025D000A6E72448E4E71546BDE72B682668181DE2
:1025E0006169286035061B6801D5196002E0700634
:1025F000FBD51980002315462361BCE72B68002119
:102600001A1D2A601D686268284600F0E2FB08B1C6
:10261000401B606063682361002384F84330AAE7AD
:102620002A46494640462369D0470130ADD0236849
:102630009B0713D4E068039B9842B8BF1846A6E7EF
:102640000123324649464046D04701309DD00135EE
:10265000E36803995B1AAB42F2DCEBE7002504F177
:102660001906F5E76C6500087D6500082DE9F04F57
:1026700087B003938B6817465A1EB2F5AE7F85BFAD
:102680006FF4AE755B190023029388BF40F25D13AF
:102690008B464FF000058CBF8B6002930B68804621
:1026A00043F4F0634BF81C3B0C465E46AA46A94631
:1026B000CDE904550195A26852B13B681B784E2BB9
:1026C00064D8402B3CD8A3F12B01C8B20E283AD9CC
:1026D000B9F1000F03D0236823F4807323600AF15B
:1026E000FF3ABAF1010F00F213815E4500F2058155
:1026F0000125284607B0BDE8F08FA3F161020D2A3D
:10270000E6D801A151F822F047280008D126000898
:10271000D1260008D1260008A72800087F28000835
:10272000D1260008D126000855280008D126000827
:10273000D1260008D1260008D12600080D2800085F
:10274000A3F14102DBE70E29C2D801A050F821F025
:10275000FF270008D1260008FF270008932800085B
:10276000D1260008AD270008E9270008E92700085E
:10277000E9270008E9270008E9270008E9270008F9
:10278000E9270008E9270008E92700086E2B09D887
:10279000602BB2D8542B77D0592B99D1072D97D1D4
:1027A000082529E0742B6FD0792BF6E72168C8053E
:1027B0001AD5029B21F08001216009F101091BB1AA
:1027C000013B01320293A260A368013BA36023692D
:1027D000013323617B68013B002B7B6040F38480E5
:1027E0003B6801333B6066E71AEB050F7FF470AF7F
:1027F000226822F4C072226006F8013BE4E72268F6
:1028000010067FF565AF22F08002F4E7BAF1000F01
:102810000ED1B9F1000F0ED1226802F4E061B1F5DA
:10282000E06F08D122F4F0624FF0010A2260E3E782
:10283000BAF1020F55D0012D02D0042D7FF448AF1C
:102840000135EDB2D8E7BAF1010F7FF441AF4FF097
:10285000020AD1E77DB9B9F1000F7FF43CAF2268DD
:1028600002F4E061B1F5E06F7FF439AF22F4F06279
:1028700001252260C0E7032DE2D0052DDEE7022D01
:102880007FF426AF0325B7E7062D7FF421AF072598
:10289000B2E7226891057FF51BAF22F42072226017
:1028A000CDF80490A8E7226802F4A061B1F5806F2A
:1028B00006D050057FF50CAFB9F1000F3FF40FAF14
:1028C000910558BF019922F4F06258BFA9EB0101AC
:1028D00042F4C0724FF0000958BFCDE904162260DF
:1028E0008AE74FF0030A87E739464046D4F880313B
:1028F000984700283FF4DFAEEAE6D4F87C313A4648
:10290000404616F8011D98472369013B2361ECE618
:102910006B1E062B25D8022D36D85E457FF6E8AE15
:10292000D4F87C313A46404616F8011D9847236991
:10293000013B2361F1E70298D4F87C3110F8011DC6
:102940003A460290404698472369013B23610AF1C9
:10295000FF3A5FFA8AFABAF1020FECD1033DEDB209
:10296000761B2368DA052FD55B0510D55E457FF60B
:10297000BFAED4F87C313A46404616F8011D984760
:102980002369013B2361F1E7AA460296DFE716F8C7
:10299000011C2369652903F1FF3306F1FF3523612B
:1029A0000CD045290AD0D4F87C313A4640469847A5
:1029B000236916F8021C013BB51E23613A464046C6
:1029C000D4F87C3198472E46256815F0100555D16E
:1029D0003570236803F4C063B3F5806F1DD1019B8C
:1029E0004B45A3EB090225D100225946404602F08F
:1029F00023FC039BD4F800C01B681CF0020F0646A2
:102A00000F4603F1040220D003990A601B68C3E952
:102A10000067E3680133E3606BE6049B002BE3D0BF
:102A200005990A232A464046013102F089FC049B9D
:102A3000059EC21A04F26F139E4228BF04F5B776B2
:102A400030460F4900F0E2F8CEE71CF0040FDBD16E
:102A5000DDF80CC0CCF80020D3F8008002460B460D
:102A6000FDF7D4FF28B1074800F0C2F9C8F800000C
:102A7000CFE730463946FEF727F8F7E7002538E676
:102A80008E65000825690008002310B50446C0E9DA
:102A90000033C0E90433836081814366C28183616E
:102AA000194608225C3000F014F90D4B2462636271
:102AB0000C4BA3620C4BE3620C4B23630C4B9C420C
:102AC00006D003F16802944202D0D0339C4205D173
:102AD00004F15800BDE8104000F078B910BD00BF07
:102AE0004D2C00086F2C0008A72C0008CB2C0008E8
:102AF000F8010020024A0349034800F069B800BF0A
:102B00000C000020F95600081800002041680C4B0A
:102B100010B59942044601D002F0EEFDA168094BC0
:102B2000994202D0204602F0E7FDE168064B994247
:102B300004D02046BDE8104002F0DEBD10BD00BF4D
:102B4000F801002060020020C802002010B50B4BE5
:102B50000B4C0C4A20461A6004210022FFF794FF18
:102B600004F1680001220921FFF78EFF04F1D00073
:102B70000222BDE810401221FFF786BF300300207B
:102B8000F8010020F52A0008014800F020B900BF34
:102B900039030020014800F01BB900BF39030020B1
:102BA00010B50446FFF7F0FF236A1BB1BDE81040E3
:102BB000FFF7F0BF044B2362044B1B68002BF5D1D9
:102BC000FFF7C4FFF2E700BF0D2B00083003002021
:102BD0002DE9F8430746884614460026D4E90195B6
:102BE000B9F1010905D52468002CF7D13046BDE8BC
:102BF000F883AB89012B07D9B5F90E30013303D027
:102C000029463846C04706436835E9E70EB46FF0F9
:102C1000004100B59CB01DAB029006900791049155
:102C20000848094953F8042B0591006802A901934B
:102C300002F0E2FB0022029B1A701CB05DF804EB6C
:102C400003B07047640000200802FFFF10B50C4677
:102C5000B1F90E1000F06CF80028ABBF636DA389CA
:102C60001B1823F48053ACBF6365A38110BD2DE90D
:102C7000F0411F468B890546DB050C46164605D5F7
:102C800002230022B1F90E1000F040F8A389324669
:102C900023F48053A38128463B46B4F90E10BDE8C7
:102CA000F04100F057B810B50C46B1F90E1000F025
:102CB0002DF8431CA38915BF606523F4805343F4AA
:102CC0008053A38118BFA38110BDB1F90E1000F08D
:102CD0000DB803460244934200D1704703F8011B2C
:102CE000F9E70000004870475801002038B500237C
:102CF000054D044608462B60FEF7C9F8431C02D177
:102D00002B6803B1236038BD3403002038B5044676
:102D1000084611460022054D2A601A46FEF7DBF8E8
:102D2000431C02D12B6803B1236038BD340300205B
:102D300038B50446084611460022054D2A601A4659
:102D4000FEF76CF8431C02D12B6803B1236038BD39
:102D50003403002038B50446084611460022054DCC
:102D60002A601A46FEF777F8431C02D12B6803B19C
:102D7000236038BD34030020014B1868704700BF42
:102D80006400002070B500260C4D0D4C641BA4108F
:102D9000A64209D103F0C2FB00260A4D0A4C641B6F
:102DA000A410A64205D170BD55F8043B98470136E2
:102DB000EEE755F8043B98470136F2E788690008CA
:102DC00088690008886900088C69000870477047A6
:102DD0007047034610B5C9B202449342184601D168
:102DE000002003E0047801338C42F6D110BD0000CE
:102DF000004870470000C07F2DE9F74F03690C6958
:102E00000746A3427FDB013C00F1140501F11408E1
:102E100005EB8403019358F8243055F8242001333E
:102E20009A42B2FBF3F64FEA840B08EB840931D3E4
:102E30004FF0000E4046AC46F24650F8042B93B2D9
:102E400006FB03E34FEA124E1A0C9BB206FB0E225E
:102E5000AAEB0303DCF800A04FEA124E1FFA8AFA2D
:102E60005344DCF800A092B2C2EB1A4202EB2342B8
:102E70009BB243EA024381454FEA224A4CF8043BA5
:102E8000DBD255F80B302BB9019B043B9D421A460F
:102E90002DD33C61384601F0DFF9002823DB2946B9
:102EA0000020013658F8042BD1F800C093B2C31AA1
:102EB000120C1FFA8CF00344C2EB1C4202EB2342BB
:102EC0009BB243EA0243C1454FEA224041F8043B2A
:102ED000E8D255F8242005EB840322B9043B9D4237
:102EE0001A460AD33C61304603B0BDE8F08F126841
:102EF000043B002ACDD1013CC8E71268043B002AFC
:102F0000F0D1013CEBE70020EEE7000000000000FC
:102F10002DE9F04F16461F46C46999B00546CDE924
:102F20000467DDF8948074B9102000F01DFE02469D
:102F3000E86120B9EF21AC4BAC4802F055FCC0E988
:102F400001440460C460EB69196851B15A680123F7
:102F500093404A608B60284600F0FAFE0022EB693D
:102F60001A603B1EAFBF0023012223F000430593EC
:102F7000A8BFC8F80030DDF814909D4BB8BFC8F862
:102F8000002033EA090319D142F20F73249A136027
:102F9000C9F31303334300F08985269B53B9954B3E
:102FA00023E0954B03930833269A1360039819B0D6
:102FB000BDE8F08F8F4B03930333F5E7DDE904346D
:102FC000CDE90C34DDE90C0100220023FDF7ECFC17
:102FD000804660B10123249A1360269B002B00F0E9
:102FE0006285864B269A1360013B0393DEE716AB9E
:102FF000019317AB00932846DDE90C2301F03CFA5E
:10300000C9F30A548246002C7ED0DDE90C010D9BE9
:10301000A4F2FF34C3F3130343F07F5343F440138C
:10302000CDF84C8019460022754BFDF79DF868A33A
:10303000D3E90023FDF750FA67A3D3E90023FDF796
:1030400095F8064620460F46FDF7DCF964A3D3E960
:103050000023FDF741FA02460B4630463946FDF79C
:1030600085F806460F46FDF7E7FC0022834600235D
:1030700030463946FDF7A2FC48B15846FDF7C2F983
:1030800032463B46FDF790FC08B90BF1FF3BBBF124
:10309000160F57D8DDE90C015A4B03EBCB03D3E9EC
:1030A0000023FDF78BFC00284ED000230BF1FF3BE3
:1030B0000F93169B1B1B5A1E46BFC3F10109002329
:1030C0004FF00009099248BF0993BBF1000F3DDBA7
:1030D000099BCDF838B05B44099300230A93229BE7
:1030E000092B67D8052BC4BF043B2293229BC8BF82
:1030F0000024A3F10203D8BF0124032B00F2868031
:10310000DFE803F02C393756DDE916431C4404F29E
:103110003243202BC1BFC3F1400309FA03F904F283
:10312000124326FA03F3D6BFC3F1200349EA030092
:1031300006FA03F0FDF756F90122A1F1F873013CFC
:1031400013926FE70123B3E70F90B2E7CBF10003CF
:103150000A930023A9EB0B090E93C0E700230B93FE
:10316000239B002B55DC01231A46069308932392D8
:103170000BE00123F3E700230B93239B5B440693AF
:103180000133012B0893B8BF012300210422E86911
:1031900002F114069E4240D94160284600F098FD95
:1031A000039000283CD1024640F2AF11164BC3E613
:1031B0000123E1E7012400230B9422934FF0FF3316
:1031C0000022069308931223D1E700BFAFF30080DB
:1031D00061436F63A787D23FB3C8608B288AC63F1D
:1031E000FB799F501344D33FA0650008B7650008E2
:1031F0000000F07F9C650008936500086B6500087F
:103200000000F83FA86600080F66000801230B9332
:10321000D4E7239B06930893B7E701315200B7E741
:10322000EB69039A1A60089B0E2B00F2A880002C11
:1032300000F0A580BBF1000F34DD9A4B0BF00F02BC
:1032400003EBC2031BF4807FD3E90034CDE91034D3
:103250004FEA2B1416D0DDE90C01934B0327D3E979
:103260000823FDF763FACDE9040104F00F048E4E44
:1032700054B9DDE91023DDE90401FDF757FACDE982
:10328000040129E00227F2E7E10708D5DDE9100192
:10329000D6E90023FDF720F9CDE9100101376410CC
:1032A0000836E5E700F0A580DDE90C01CBF100046C
:1032B0007C4B04F00F0203EBC203D3E90023FDF7BC
:1032C0000BF902270023CDE90401774E2411002CCD
:1032D00040F08480002BD2D1DDE90434CDE91034F4
:1032E0000F9B002B00F08780DDE9100100226F4B5F
:1032F000FDF764FB00287ED0089B002B7BD0069B4B
:10330000002B38DDDDE910010022694BFDF7E4F800
:10331000CDE90401069C0BF1FF3801373846FDF773
:1033200071F8DDE90423FDF7D7F80022614BFCF7C3
:103330001DFFA1F15076CDE910011196002C5DD151
:10334000DDE9040100225C4BFCF70EFF02460B4650
:10335000CDE904233346109AFDF74EFB002840F0D8
:103360009582DDE90401109A06F10043FDF726FB82
:10337000002840F08982DDE90C34CDE90434179B44
:10338000002BC0F25181BBF10E0F00F34D81454B74
:1033900003EBCB03D3E90034CDE90634239B002BA8
:1033A00080F2DA80089B002B00F3D68040F06B821D
:1033B000DDE906010022404BFDF78EF8DDE904232C
:1033C000FDF710FB089C2646002840F0418231237F
:1033D000039F0BF1010B07F8013B3DE2E20705D526
:1033E000D6E90023FDF778F8012301376410083689
:1033F0006DE7022770E7D846089C8FE70399294BB1
:10340000214412910B9903EBC403DDE9106753E9E2
:103410000223002954D000202849FDF787F93B46B4
:103420003246FCF7A1FECDE91001039FDDE904015E
:10343000FDF702FB0446FCF7E5FF02460B46DDE91B
:103440000401FCF791FE02460B463034CDE904231B
:10345000DDE9102307F8014BFDF7B0FA002873D11E
:10346000DDE9042300201149FCF77EFEDDE910238D
:10347000FDF7A4FA002840F0B680129B9F423FF46B
:103480007AAFDDE910010022094BFDF725F8002293
:10349000CDE91001DDE90401054BFDF71DF8CDE98B
:1034A0000401C3E7A8660008806600080000F03F3A
:1034B0000000244000001C40000014400000E03FD9
:1034C00030463946FDF708F8129BCDE91001039C00
:1034D0001493DDE90401FDF7AFFA1590FCF792FFB4
:1034E00002460B46DDE90401FCF73EFE159B06464D
:1034F000303304F8013B129B0F469C424FF0000210
:1035000024D1DDE91001AF4BFCF730FE02460B463B
:1035100030463946FDF770FA002863D1DDE9102303
:103520000020A849FCF720FE02460B4630463946EB
:10353000FDF744FA00283FF41EAF149F7B1E14933E
:1035400017F8013C302BF8D0C3463BE09E4BFCF70C
:10355000C3FFCDE90401BCE7039FDDE90489DDE990
:10356000062340464946FDF7E1F8FDF765FA0446B3
:10357000FCF748FFDDE90623FCF7AEFF02460B46E9
:1035800040464946FCF7F0FD04F1300607F8016BB0
:10359000039EDDF820C0BE1BB44502460B4636D163
:1035A000FCF7E4FDDDE9062380468946FDF724FAB1
:1035B00058BBDDE9062340464946FDF7F5F908B159
:1035C000E30722D45146284600F0C2FB0023249A88
:1035D0003B700BF101031360269B002B3FF4E6AC1C
:1035E0001F60E3E427463B461F4613F8012D392AA6
:1035F00007D1039A9A42F7D13022039908F10108C2
:103600000A701A7801321A709EE7D846EBE700225A
:103610006D4BFCF761FF0022002380468946FDF7D1
:10362000C3F900289BD0CDE70B9A002A00F0C48094
:10363000229A012A00F3A880139A002A00F0A080A1
:1036400003F233434F460A9C099A01211A44284643
:103650009944099200F07CFC06465FB1099B002B5F
:1036600008DDBB42A8BF3B46099AA9EB0309FF1A34
:10367000D31A09930A9BF3B10B9B002B00F0A08097
:10368000002C10DD31462246284600F01FFD524630
:1036900001460646284600F071FC80465146284601
:1036A00000F056FBC2460A9B1A1B04D0514628461E
:1036B00000F00CFD82460121284600F049FC0E9BDB
:1036C0000446002B40F382801A460146284600F04B
:1036D000FDFC229B0446012B7BDD4FF00008236993
:1036E00004EB8303186900F0E5FBC0F12000099B9F
:1036F000184410F01F0000F09280C0F12003042B4A
:1037000040F38580099BC0F11C00034481440744B9
:103710000993B9F1000F05DD51464A46284600F0ED
:103720002FFD8246099B002B05DD21461A462846BF
:1037300000F026FD04460F9B002B72D02146504618
:1037400000F08AFD00286CDA002351460A22284640
:1037500000F020FB0B9B82460BF1FF3B002B00F09F
:10376000AC81002331460A22284600F013FB069B59
:103770000646002B00F39380229B022B59DC8EE03F
:10378000169BC3F136035DE7089B5C1E0A9BA342B0
:10379000BFBF0A9B0E9AE31AD218A8BF1C1B089B36
:1037A000BEBF0A940E920024002BB5BFA9EB0307FD
:1037B0004F460023089B47E74F460A9C0B9E4CE769
:1037C0000A9A73E70000E03F00002440229B012B8F
:1037D00018DC049BB3B9059BC3F3130393B9059B92
:1037E00023F000431B0D1B057BB14FF00108099B23
:1037F00009F10109013309930E9B002B7FF46FAF90
:10380000012074E74FF00008F6E79846F4E780D00F
:10381000099A1C331A4499441F44099279E70346D4
:10382000F6E7089B002B34DC229B022B31DD089B42
:103830000693069B63B921460522284600F0AAFAA2
:1038400001460446504600F007FD00283FF7BFAD93
:10385000239B039F6FEA030B4FF000082146284685
:1038600000F076FA002E3FF4ADAEB8F1000F05D0AF
:10387000B04503D04146284600F06AFA3146284652
:1038800000F066FA9EE600242646E1E7C346264697
:103890009DE50B9B002B00F0C880089B0693002F32
:1038A00005DD31463A46284600F06AFC0646B8F186
:1038B000000F5BD02846716800F00AFA074628B965
:1038C000024640F2EF21814BFFF736BB326906F129
:1038D0000C01023292000C3001F072FF01223946D5
:1038E000284600F04DFCB0460646039B039A013380
:1038F0000893069B13440B93049B03F001030A9364
:10390000089B2146013B50460493FFF775FA414658
:10391000069000F13009504600F09EFC32460990B6
:103920002146284600F0B4FCC268074602BB0146A7
:10393000504600F091FC0246394628460C9200F0B1
:1039400007FA229B0C9A089F43EA02010A9B19433B
:1039500010D1B9F1390F29D0099B002B02DD069B4C
:1039600003F13109049B83F8009077E73046BAE70A
:103970000122E1E7099B002B04DB22990B430A9902
:103980000B4320D1002AEDDD51460122284600F0EC
:10399000F7FB2146824600F05FFC002803DCE1D102
:1039A00019F0010FDED0B9F1390FD8D13923049ABB
:1039B00013703B461F4617F8012C013B392A6BD088
:1039C00001321A704AE7002A07DDB9F1390FEDD04C
:1039D000049A09F10103137040E7089B0B9A03F85E
:1039E000019C934242D0514600230A22284600F00F
:1039F000D1F9B04582464FF000034FF00A0241462C
:103A0000284607D100F0C6F980460646089B0133D8
:103A1000089375E700F0BEF93146804600230A227C
:103A2000284600F0B7F90646F0E7089B0693039F87
:103A300021465046FFF7E0F9039B00F1300907F8F3
:103A4000019BFA1A069B934207DD514600230A2286
:103A5000284600F09FF98246EAE7069B4FF00008EF
:103A6000002BCCBF1F460127039B1F445146012258
:103A7000284600F085FB2146824600F0EDFB002839
:103A800097DC02D119F0010F93D13B461F4613F882
:103A9000012D302AFAD0E1E6039A9A428AD13123E5
:103AA0000BF1010B97E70A4BFFF79FBA269B002B00
:103AB0007FF477AA074BFFF798BA069B002BB6DC7A
:103AC000229B022B3FF7B5AEB1E700BF0F6600089F
:103AD0006A6500089365000838B50546002940D09E
:103AE00051F8043C0C1F002BB8BFE41800F0E4F8B8
:103AF0001C4A136833B9636014602846BDE8384037
:103B000000F0E0B8A34208D9206821188B4201BF19
:103B100019685B6809182160EDE71A465B680BB10C
:103B2000A342FAD911685018A0420BD12068014471
:103B3000501883421160E0D118685B680844106037
:103B40005360DAE702D90C232B60D6E720682118EE
:103B50008B4201BF19685B6809182160636054607B
:103B6000CBE738BD3C030020024B0146186800F04B
:103B700023B800BF6400002070B50E4E0C463168BB
:103B8000054611B901F00CFE30602146284601F0CF
:103B900007FE431C0AD0C41C24F00304A04207D033
:103BA000211A284601F0FCFD013001D14FF0FF340D
:103BB000204670BD400300202DE9F843CD1C25F0C0
:103BC000030508350C2D38BF0C25002D074601DBF9
:103BD000A94205D90C2300263B603046BDE8F88396
:103BE000DFF8D08000F068F8D8F800301C465CBBE5
:103BF00029463846FFF7C0FF431C044655D1D8F884
:103C000000402646002E45D1002C48D0236831467E
:103C1000384604EB030901F0C3FD81453FD121681B
:103C200038466D1A2946FFF7A7FF013037D02368C1
:103C30002B442360D8F80030002B38D05A68A242B9
:103C40002BD100225A600FE02268521B1FD40B2A8E
:103C500017D96119A342256018BF5960636808BF6E
:103C6000C8F8001062514B60384604F10B0600F0B2
:103C700029F826F00706231DF21AAED09B1BA3508D
:103C8000ABE7A3426268DDD1C8F80020ECE7234629
:103C90006468ACE734467668B4E71346CCE70C2397
:103CA00038463B6000F00EF897E72560DCE75B6084
:103CB000FFDE00BF3C0300200148FFF788B800BFCB
:103CC000380300200148FFF783B800BF3803002005
:103CD00070B5C66904460D4676B91020FFF744FF5B
:103CE0000246E06120B96B21174B184801F07CFDBA
:103CF000C0E901660660C660E669F36883B1E369FE
:103D0000DB6853F82500B8B9012101FA05F6721DE8
:103D10002046920001F086FD60B1C0E901560EE038
:103D200021220421204601F07DFDE369F060DB687B
:103D3000002BE4D1002070BD026843F82520002349
:103D4000C0E90333F7E700BFA0650008206600085C
:103D500070B5C66905460C4676B91020FFF704FF1A
:103D60000246E86120B98F21084B094801F03CFD6B
:103D7000C0E901660660C6603CB1EB696268DB6859
:103D800053F82210216043F8224070BDA06500085E
:103D9000206600082DE9F04107460C461E4600202B
:103DA0000D6901F1140CDCF80030013099B202FB0E
:103DB00001611E0C0B0C02FB063389B201EB0341BF
:103DC00085424FEA13464CF8041BECDC0EB3A368A3
:103DD000AB4219DC616838460131FFF779FF804654
:103DE00028B90246BA210C4B0C4801F0FDFC2269AF
:103DF00004F10C01023292000C3001F0E1FC21468A
:103E00003846FFF7A5FF444604EB850301355E61A4
:103E100025612046BDE8F0810F6600082066000895
:103E20002DE9F843154609221F4608330C4693FB3B
:103E3000F2F30646012200219A4209DB3046FFF7E1
:103E400047FF40B90246D321184B194801F0CCFC7A
:103E500052000131F0E7089B092D43614FF0010347
:103E6000036116DD04F10909C8462C4418F8013B2A
:103E700001460A223046303BFFF78CFFA045F5D1C2
:103E8000A5F108044C442D1B6319BB4204DBBDE8BB
:103E9000F88309250A34F6E714F8013B01460A22A3
:103EA0003046303BFFF776FFEEE700BF0F660008B5
:103EB00020660008020C12040346CAB9030410204D
:103EC00013F07F4F04BF1B02083013F0704F04BF84
:103ED0001B01043013F0404F04BF9B000230002B45
:103EE00005DB13F0804F00F1010008BF2020704770
:103EF0000020E5E70368024613F007000BD0D9075E
:103F000021D4980749BF5B089B08012013605CBF60
:103F100002201360704799B209B910201B0CD9B266
:103F200009B908301B0A190704BF1B090430990797
:103F300004BF9B080230D90703D45B0800F10100DD
:103F400003D01360704700207047202070470000A6
:103F500010B50C460121FFF7BBFE024628B940F21E
:103F60004511044B044801F03FFC01234461036107
:103F700010BD00BF0F660008206600082DE9F04F55
:103F800091460A69D9F810300C469A42BEBF0B46DA
:103F90004C4699462769D9F810A0A368616807EBD9
:103FA0000A06B34285B0B8BF0131FFF791FE30B9C0
:103FB00002464FF4B171434B434801F015FC00F148
:103FC00014052B46002205EB8608434521D304F156
:103FD000140303EB870709F1140303EB8A0202922F
:103FE0003A1B153A22F00302043204F115018F4204
:103FF00038BF04220192029A03939A420CD8002EF1
:1040000003DD58F8043D002B5AD0066105B0BDE829
:10401000F08F43F8042BD8E7B3F800A0BAF1000FF3
:1040200023D0A9464FF0000C04F1140E5EF8042BC7
:10403000D9F800101FFA82FB89B20AFB0B11614408
:10404000D9F800C0120C4FEA1C4C0AFB02C202EB6A
:10405000114289B241EA024177454FEA124C49F8D0
:10406000041BE3D8019A45F802C0039A0433B2F85E
:104070000290B9F1000F21D0AE464FF0000A296836
:1040800004F1140CBCF800B0BEF8022089B209FBA0
:104090000B22524441EA02414EF8041B5CF8041B17
:1040A0004FEA114ABEF80010674509FB0A1101EBFF
:1040B00012414FEA114AE5D8019AA95004359AE70E
:1040C000013E9CE70F660008206600082DE9F843D2
:1040D000154612F0030206460F4607D0254C013A5A
:1040E000002354F82220FFF755FE0746AD103DD0BF
:1040F000F4697CB91020FFF737FD0246F06128B95A
:1041000040F2B3111C4B1D4801F06EFBC0E90144A5
:104110000460C460D6F81C80D8F808404CB940F25E
:1041200071213046FFF714FF00230446C8F8080049
:1041300003604FF00009EB070AD5394622463046A6
:10414000FFF71CFF804639463046FFF701FE474621
:104150006D100BD0206838B9224621463046FFF753
:104160000DFF2060C0F800900446E4E73846BDE843
:10417000F88300BF70670008A0650008206600088B
:104180002DE9F0470C46074691462369496803EB41
:104190006218A3684FEA621A08F10106B3420BDB0A
:1041A0003846FFF795FD054648B902464FF4EF71D2
:1041B000274B284801F018FB01315B00EEE7002394
:1041C00000F1140100F110021846534533DB206959
:1041D0002AEAEA7A04F1140319F01F0901EB8A01B3
:1041E00003EB800C2BD08A460022C9F1200E186800
:1041F00000FA09F010434AF8040B53F8042B9C45CD
:1042000022FA0EF2F3D8ACEB0403153B23F00303C0
:10421000043304F11500844538BF0423CA500AB1A1
:1042200008F10206013E384621462E61FFF790FD57
:104230002846BDE8F08742F8040F0133C5E704398A
:1042400053F8042B9C4541F8042FF9D8EAE700BF46
:104250000F6600082066000803460A69006930B549
:10426000801A0DD11433143103EB820401EB820167
:1042700054F8045D51F8042D954202D004D3012076
:1042800030BDA342F4D3FBE74FF0FF30F8E7000066
:104290002DE9F84F0D460746114628461446FFF70C
:1042A000DBFF061E11D131463846FFF711FD0246ED
:1042B00028B940F237213A4B3A4801F095FA0123E8
:1042C000C0E904361046BDE8F88FA4BF23462C464B
:1042D00038466168A6BF1D4600260126FFF7F8FC98
:1042E000024618B940F245212D4BE5E702F11408CA
:1042F000C2464FF0000C2769C6602E6904F1140015
:1043000005F1140900EB870E09EB8606103454F80A
:1043100004BF59F8043B1FFA8BF161441FFA83FC78
:104320001B0CA1EB0C01C3EB1B4303EB214389B234
:1043300041EA03414E454FEA234C4AF8041BE6D8B4
:10434000731B153B23F0030315350433AE4238BF0E
:104350000423184443441E46054675450ED30EF10A
:104360000301091A21F003010338864538BF0021F3
:104370000B4453F8041D89B11761A3E755F8048B6A
:104380001FFA88F161440C1404EB184489B241EA25
:1043900004414FEA244C46F8041BDEE7013FE8E7FE
:1043A0000F660008206600080E4B0B40A3F1507307
:1043B000002B08DC5B42B3F1A07F4FEA235204DA02
:1043C0004FF400231341002208E0A2F114031E2B36
:1043D000D6BF4FF000420122DA40002319461046B2
:1043E000704700BF0000F07FF8B5056900F11407C1
:1043F00007EB850555F8044C2E1F2046FFF75AFDA4
:10440000C0F120020A280346DFF868C00A6012DC07
:10441000C0F10B0E24FA0EF2B74242EA0C012CBF97
:10442000002255F8082C153304FA03F322FA0EF291
:104430001A431046F8BDB7422EBF002255F8082C8B
:10444000A5F108060B3B12D0C3F1200522FA05F1B5
:104450009C400C43BE4244F07F5194BF002456F868
:10446000044C9A40EC4041F440112243E1E744EA15
:104470000C01DEE70000F03FF7B5012117461C46AE
:10448000089EFFF725FC054630B9024640F20F3181
:10449000224B234801F0A8F9C4F31303C4F30A54D0
:1044A00024BB002F019326D068460097FFF722FD1A
:1044B000DDE90012E8B1C0F1200302FA03F30B4377
:1044C000C2406B610192019B002B14BF02210121AC
:1044D000AB612961BCB1A4F2334404443460C0F13F
:1044E0003500099B1860284603B0F0BD43F48013E3
:1044F000D7E76961E7E701A8FFF7FCFC019B012111
:104500006B612030E5E7A0F2324005EB81033060BB
:104510001869FFF7CFFCC0EB4110E2E70F66000817
:10452000206600082DE9F74F884669468146FFF767
:104530005BFF0F4604460D46404601A9FFF754FFB6
:10454000D9F81030D8F810208B46A3EB020CDDE927
:1045500000329B1A03EB4C13002BD5BF0A462A46A8
:10456000C3EB033302EB0357D8BF02EB035B5B469D
:10457000024639462046FCF7D9F803B0BDE8F08F73
:10458000013970B549111469013102F1140300EBCE
:10459000810103EB8404051FA3420CD3A31A113B32
:1045A00023F003031132A24288BF002318440023E2
:1045B000884205D370BD53F8046B45F8046FEBE7F0
:1045C00040F8043BF4E700F1140200694B119842F3
:1045D00010B511DB0ADD11F01F0107D052F823409E
:1045E00024FA01F000FA01F18C420BD102EB8303B3
:1045F000934203D8002010BD0346F7E753F8041D8B
:104600000029F5D00120F6E72DE9F0410F4690464C
:10461000FFF7CAFE04460D46B8F1000F11D0C7F3EC
:104620000A53C3F16B03002B0BDD00241B0503F1C0
:104630007F5505F5401522462B46FBF74DFF0446F6
:104640000D4620462946BDE8F0810000000000002C
:104650002DE9F04F9FB01792002204461A920D46A2
:104660004FF000084FF000090A46199211782B29E3
:104670004AD038D80D2932D8082932D800293BD061
:1046800000220E92199E3278302A40F0B280727861
:1046900002F0DF02582A6ED102930E9B204601934E
:1046A0001AAB00938C4A1BAB19A901F037F910F033
:1046B0000F07054605D0062F28D10023013619968D
:1046C0000E93179B002B40F0A0850E9BCBB142466A
:1046D00009F10043104619461FB0BDE8F08F2029AC
:1046E000CED10132C1E72D29CAD101210E91511C31
:1046F00019915278002AC5D1179B1995002B40F0CB
:10470000828542464B46E5E70021EFE71A9A3AB127
:1047100035211CA8FFF734FF20461A99FFF718FB34
:10472000013F1B9A042F06D8DFE807F014031D2071
:104730001400DDE91C89E90548BF49F0004929F06A
:1047400000431B0D1B05002BBBD1FEF715FB2223DD
:104750000360B6E702F23342DDE91C8323F48013E1
:1047600043EA0259E7E7DFF87491E4E76FF00049A4
:104770004FF0FF38DFE7199B5A1C19925B78302BFA
:10478000F9D0002B9DD001234FF0000A0A22D34616
:104790000593199BCDF828A00B9319980678A6F1DC
:1047A0003003D9B2092926D901224D4900F0E6FF8C
:1047B000002830D00020324603465E460890652A25
:1047C00001D0452A13D11EB9059A024394D0002680
:1047D000199D6A1C19926A782B2A74D02D2A78D0D8
:1047E0004FF0000CA2F1300109297FD9199500275B
:1047F0009EE00023C8E7BBF1080FD8BF0A9900F17B
:104800000100D6BF02FB013302FB0A3A0A930BF107
:10481000010B1990C1E7199B5A1C19925A78BBF1E8
:10482000000F37D05E460890A2F13003092B12D951
:104830000123C4E7199B01305A1C19925A78302A77
:10484000F8D0A2F13103082B00F2E4840890002094
:104850000646199B0B93303A00F1010314D00899D6
:1048600000EB060C1944089133460A21634513D125
:104870003318082B06F1010606441ADC0A230A99AC
:1048800003FB01230A930023199A1846511C19911E
:104890005278C9E75846D2E7082B03F1010303DC3D
:1048A0000A9F4F430A97E1E7102BD8BF01FB0AFA92
:1048B000DCE7102EDCBF0A2303FB0A2AE3E7002310
:1048C0000893012380E74FF0000CAA1C1992AA78E4
:1048D00088E74FF0010CF8E7806700080000F07FE0
:1048E0007C670008199A511C19915278302AF9D026
:1048F000A2F1310108293FF67AAF303A0992199AAC
:104900000C92199A571C19975278A2F1300EBEF1E9
:10491000090F38D90C997F1A082F44F61F6703DC5A
:1049200009998F42A8BF0F46BCF1000F00D07F420B
:10493000002E4FD1059901437FF4C3AE002B7FF4C5
:10494000DBAE692A29D026DC492A26D04E2A7FF4FC
:10495000D3AE9A4919A801F023FA00283FF4CCAE4F
:10496000199B1B78282B2FD195491CAA19A801F057
:104970002BFA052828D11D9BDDF8708043F0FF49F4
:1049800049F4E0099DE60A21099F01FB0721A1F1F5
:1049900030020992B5E76E2AD9E78A4919A801F0D1
:1049A000FFF900283FF4A8AE199B8749013B19A8DD
:1049B000199301F0F5F910B9199B013319934FF0D0
:1049C0000008DFF808927CE6814800F007FF804687
:1049D000894676E6089BBBF1000F08BFB346FB1A79
:1049E000102E0A9835460993A8BF1025FBF7FAFC4C
:1049F000092E8046894613DD764B03EBC50353E948
:104A00001223FBF769FD804650468946FBF7EAFC16
:104A100002460B4640464946FBF7A8FB80468946BE
:104A20000F2E36DC099B002B3FF44BAE22DD162BFC
:104A300009DC6849424601EBC3014B46D1E900015C
:104A4000FBF74AFDC3E7099AC6F12503934220DB31
:104A5000604CC6F10F0604EBC6014246D1E90001E5
:104A60004B46FBF739FD099B9E1B04EBC604D4E9BA
:104A70000023E5E7099B16330BDB089B4046DF1B51
:104A8000544B494603EBC707D7E90023FBF74EFE1B
:104A90009DE7099B751B1D44002D70DD15F00F036C
:104AA0000AD04C49424601EBC301D1E900014B4613
:104AB000FBF712FD8046894635F00F054DD0B5F560
:104AC0009A7F22DD0026B3460B96089622234FF0EC
:104AD0000008DFF8F89023600B9B002B3FF4F1AD4A
:104AE00020461A99FFF734F920460899FFF730F964
:104AF00059462046FFF72CF920460B99FFF728F975
:104B000031462046FFF724F9DBE5334B4046059359
:104B1000002349469A462D11012D21DC0BB1804618
:104B200089462D49A9F1547901EBCA014246D1E9E0
:104B300000014B46FBF7D0FC244B0A460B402749AB
:104B400080468B42BED8A1F580118B4286BF4FF0C4
:104B5000FF38DFF88C9002F15479002305937BE055
:104B6000EA0705D5059BD3E90023FBF7B5FC012334
:104B7000059A0AF1010A08326D100592CCE7ECD0D3
:104B80006D4215F00F020AD0124B404603EBC203F0
:104B90004946D3E90023FBF7C9FD804689462D111C
:104BA000DBD01F2D1EDD0026B3460B960896222370
:104BB0004FF000084FF0000923608DE7676500089B
:104BC000946700085F650008966500080000F07FA4
:104BD00025690008A8660008806600080000A07C1F
:104BE000FFFFEF7F15F0100318BF6A2340460593BF
:104BF00049460023DFF8C8A2EA0704D5DAE9002312
:104C0000FBF76AFC01236D100AF1080AF4D10BB11D
:104C100080468946059BBBB1C9F30A52C2F16B03BA
:104C2000002B494610DD1F2B40F32881342BD8BFC1
:104C30004FF0FF334FF00008CFBF4FF05C79C2F167
:104C40004B02934003EA01090022002340464946F3
:104C5000FBF7AAFE0028A6D10A9B5A4600932046DD
:104C600033460B99FFF7DCF80B9000283FF42AAF8E
:104C70000026099A089B002AA3EB0703A8BF00237C
:104C8000B346129322EAE27316930B9B20465968AF
:104C9000FFF71EF8089000283FF418AF0B9B0C306C
:104CA0001A6903F10C010232920000F089FD1CAB7D
:104CB00001931BAB009342464B462046CDF8308013
:104CC000CDF83C90FFF7D8FB1A9000283FF4FEAED9
:104CD00001212046FFF73CF9834600283FF4F6AE59
:104CE0001B9F1C9A002FABBF129B169B07EB030A5E
:104CF000DD1B059BA8BF169DA7EB03071744714B4F
:104D000007F1FF37B8BFDDF848A09F42C2F1360275
:104D100080F2C780DB1B1F2B4FF00101A2EB0302C7
:104D200000F3B38001FA03F31393002310930AEB0B
:104D30000207059BBA4515441D445346A8BF3B4690
:104D4000AB42A8BF2B46002BC2BFFF1AED1AAAEB3D
:104D5000030A129B002B17DD59461A462046FFF71F
:104D6000B5F9834600283FF4B1AE01461A9A2046B1
:104D7000FFF704F90A9000283FF4A8AE20461A99DC
:104D8000FEF7E6FF0A9B1A93002F00F38F80099B22
:104D9000002B08DD2046169A0899FFF797F908902E
:104DA00000283FF493AE002D08DD2A4620460899DE
:104DB000FFF7E6F9089000283FF488AEBAF1000F3B
:104DC00008DD594652462046FFF7DAF983460028A7
:104DD0003FF47CAE2046089A1A99FFF759FA064626
:104DE00000283FF473AE0025C3685946C5600A9396
:104DF000FFF732FAA8426BDA0A9B53EA080340F045
:104E00008F80C9F31303002B40F08A8029F0004300
:104E10001B0D1B05B3F1D66F40F28280736913B985
:104E20003369012B7CDD314601222046FFF7A8F9CA
:104E300059460646FFF710FA002871DD05994B46E2
:104E4000214A002900F08D8002EA0901B1F1D66FF4
:104E500000F38780B1F15C7F7FF7A9AE40464946F9
:104E60001A4B0022FBF738FB174B80460B40894654
:104E7000002B7FF435AE2223236031E64FF0FF3262
:104E800002FA03F303EA0808DEE6C7F17F4707F5F5
:104E90007F0707F57B47E23701FA07F31093139179
:104EA00045E7002310930123139340E73A46204639
:104EB0001A99FFF765F91A9000287FF468AF05E6A4
:104EC000A867000802FCFFFF0000F07F00005039D7
:104ED000CA4665D10A9AC9F3130352B39E4A934254
:104EE0002AD1059B4146FBB19C4B4FF0FF3209EAAA
:104EF0000303B3F1D46F1AD81B0DC3F16B0302FA8D
:104F000003F3994218D1964B9A4502D101313FF4EF
:104F1000DDAD4FF00008914B0AEA030303F5801959
:104F2000059B002B9AD1DBE54FF0FF33E9E71346F1
:104F3000E7E753EA080381D0109BE3B113EA0A0FB5
:104F4000EED00A9B40464946059AC3B1FFF75CFB89
:104F500002460B460C980F99FBF708F980468946E4
:104F6000DEE71340A3F580136FEA13594FF0FF38C3
:104F70006FEA0959D4E7139B13EA080FE0E7FFF73C
:104F800043FB02460B460C980F99FBF7EDF8002205
:104F9000002380468946FBF707FD0028C0D006E6BF
:104FA00059463046FFF7BEFA02460B46CDE91023BC
:104FB00000224FF08043FBF70BFD00286FD00A9BC7
:104FC000002B7CD1B8F1000F59D1C9F31303002B8A
:104FD0007BD1DDE910010022624BFBF7EFFC0028DA
:104FE0005AD1DDE9100100225F4BFBF775FA054647
:104FF0000F4607F1004306950793DDE90623CDE947
:105000001023564B554A0AEA03031393574B0AEAF7
:1050100002029A4240F0B080AAF1547940464946D3
:10502000FFF7C2F9DDE90623FBF756FA42464B4685
:10503000FBF79CF8DFF824A14D4A01EA0A0A9245E1
:10504000804648D90F9A464B9A4203D10C9B0133B4
:105050003FF43CAD4FF0FF38DFF8049120461A9939
:10506000FEF776FE20460899FEF772FE5946204666
:10507000FEF76EFE31462046FEF76AFE05E6B8F101
:10508000010F03D1B9F1000F3FF491AD0022394B6C
:105090000A9DCDE9062316E00A9D334FA9E7324B5E
:1050A0000022DDE91001FBF717FA0A9B05460F46BF
:1050B000002B9ED002460B46CDE906239DE7002239
:1050C000284BCDE90623274F97E70022294B454679
:1050D000CDE90623F7E701F15479059BCA46002B79
:1050E000BCD129F00043139A1B0D1B059A42B5D180
:1050F00028463946FBF738FDFBF7C0F902460B4658
:1051000028463946FBF730F80B460246C9F3130A26
:10511000CDE90C230A9B4AEA080A5AEA030A6CD032
:1051200009A3D3E90023FBF749FC00287FF4D8AC9E
:1051300007A3D3E90023DDE90C01FBF75DFC0028A0
:105140008CD0CDE4AFF300809535A094FFFFDF3F16
:1051500035E5AF350000E03FFFFF0F000000F07FB6
:10516000FFFFEF7F0000F03F0000E03F0000E07F26
:10517000FFFF9F7C0000F0BF059B33B3139BB3F18F
:10518000D46F22D828A3D3E9002328463946FBF759
:105190001FFCA0B139462846FBF776FC012838BF32
:1051A0000120FBF71FF90A9B05460F4603BB01F1DF
:1051B000004314901593DDE91423CDE91023119BCE
:1051C000139A03F1D6639B1A11930C980F99DDE99A
:1051D0001089FFF7E9F802460B4640464946FBF7BF
:1051E0007BF90C9A0F9BFAF7C1FF8046894674E75A
:1051F00002460B46CDE91423DDE70DA3D3E90023D6
:10520000FBF7DCFB9BE700230E93199B179A1360B7
:10521000FFF75BBA652A3FF452AB452A3FF44FAB28
:105220000123FFF787BB00BF0000C0FFFFFFDF4186
:105230009535A094FFFFCF3F014BFFF709BA00BFA0
:1052400068000020012B2DE9F0478646904601D0EA
:10525000242B06D9FDF790FD162303600020BDE83E
:10526000F0870D4635482A4615F8014B065D16F0C5
:105270000806F8D12D2C2ED101262C78951C002B58
:1052800057D0102B09D1302C07D12A7802F0DF0239
:10529000582A49D110236C780235002206F1004CBF
:1052A0000CF1FF3CBCFBF3F9104603FB19CAA4F157
:1052B0003007092F14D83C46A34220DD571C07D0E5
:1052C000814519D301D1A24516DB012200FB034021
:1052D00015F8014BEBE72B2C04BF2C78951CCEE77F
:1052E000A4F14107192F01D8373CE5E7A4F1610784
:1052F000192F04D8573CDFE74FF0FF32E8E7531C83
:1053000008D122236046CEF80030B8F1000FA6D0B5
:10531000691E06E006B14042B8F1000F9FD0002A96
:10532000F6D1C8F800109AE73024002BB5D1082335
:10533000B3E7302CA9D00A23AFE700BFD16700083C
:10534000FFF780BF2DE9F0471F468E688246BE42B8
:105350000C4690460B682CD88A8912F4906F26D0A0
:105360006569096905EB4505A3EB010905EBD575F1
:105370007B1C4B446D109D4238BF1D46530527D5FD
:105380002946FEF719FC064660B34A46216900F03B
:1053900017FAA38923F4906343F08003A381266165
:1053A0004E4426603E466561A5EB0905A560BE42F8
:1053B00000D93E4632464146206800F0C5F900203B
:1053C000A3689B1BA360236833442360BDE8F08778
:1053D0002A4600F0A6FD06460028E0D15046216985
:1053E000FEF77AFB0C23CAF80030A3894FF0FF3098
:1053F00043F04003A381E9E72DE9F04F98468B89FC
:1054000007461B060D4614469DB00ED50B6963B9C1
:105410004021FEF7D1FB2860286120B90C233B60B6
:105420004FF0FF30D0E040236B610023099320232D
:105430008DF8293030234FF00109CDF80C80DFF8CA
:10544000A0818DF82A3023469A4613F8012B0AB121
:10545000252AF9D1BAEB040B0BD05B46224629462C
:105460003846FFF76FFF013000F0A980099A5A44CF
:1054700009929AF80030002B00F0A18000234FF031
:10548000FF32CDE905230AF1010A049307938DF851
:1054900053301A935446052214F8011B5048FDF767
:1054A00098FC049AD8B9D00644BF20238DF8533015
:1054B000110744BF2B238DF853309AF800302A2B64
:1054C00015D0544600204FF00A0C079A214611F8D7
:1054D000013B303B092B4DD9B0B1079214E0A0EB52
:1054E000080309FA03F31343A2460493D2E7039B8C
:1054F000191D1B680391002BBBBF5B4242F00202E7
:1055000007930793B8BF049223782E2B0CD16378AE
:105510002A2B34D1039B02341A1D1B680392002BE3
:10552000B8BF4FF0FF330593DFF8B8A00322504611
:105530002178FDF74EFC38B14022049BA0EB0A0015
:10554000824013430134049314F8011B06222648B9
:105550008DF82810FDF73DFC002838D0234B1BBBED
:10556000039B073323F0070308330393099B33445A
:10557000099368E70C4601200CFB0232A6E70023E2
:105580004FF00A0C194601340593204610F8012B00
:10559000303A092A03D9002BC6D00591C4E7044646
:1055A00001230CFB0121F0E703AB00932A463846A8
:1055B0000F4B04A9FCF798FC421C0646D6D1AB89D8
:1055C0005B063FF52DAF09981DB0BDE8F08F03AB2A
:1055D00000932A463846064B04A9FCF725FFEBE763
:1055E000D1680008D7680008DB680008E91E0008D9
:1055F000455300088A89F8B5054610070C4657D46C
:105600004B68002B04DC0B6C002B01DC0020F8BD88
:10561000E66A002EFAD0002312F480522F68216A25
:105620002B6032D0606DA3895A0705D56368C01A14
:10563000636B0BB1236CC01A00230246E66A28464E
:10564000216AB047431CA38906D129681D292BD89C
:10565000284A0A41D60727D4002262602269D90469
:10566000226004D5421C01D12B6803B96065616BCF
:105670002F600029CAD004F14403994202D0284681
:10568000FEF72AFA00206063C1E701232846B047ED
:10569000411CC8D12B68002BC5D01D2B01D0162B67
:1056A00001D12F60B2E7A38943F04003A381AEE7A5
:1056B0000F69002FAAD0930718BF00230E6808BFF8
:1056C0004B69F61B0F608B60002E9FDD33463A4618
:1056D0002846216AD4F828C0E047002806DCA389C0
:1056E0004FF0FF3043F04003A38190E70744361AA0
:1056F000EAE700BFFEFFBFDF38B50B6905460C4681
:1057000013B90025284638BD18B1036A0BB9FDF757
:1057100047FAB4F90C30002BF3D0626ED00704D4F2
:10572000990502D4A06DFDF752FB28462146FFF7EC
:1057300061FF636E0546DA07E4D4A3899B05E1D4D3
:10574000A06DFDF745FBDDE7884210B501EB0204D3
:1057500002D98442234607D8431EA14208D011F83B
:10576000012B03F8012FF8E7014602448A4200D1D9
:1057700010BD13F8014D02F8014DF7E710B56AB1FD
:105780000139841810F8012B11F8013F9A4203D116
:10579000A04201D0002AF5D1D01A10BD1046FCE776
:1057A00038B50023054D044608462B60FBF7A0FBE7
:1057B000431C02D12B6803B1236038BD34030020A1
:1057C0000A44914200F1FF3300D1704710B511F83F
:1057D000014B914203F8014FF9D110BD002001495E
:1057E000704700BF0000F87F1FB514461A46094BEA
:1057F00005461B68D8684CB1074BCDE901340091D0
:105800002B46064900F0CAFB00F0DAFB044B1C46AD
:10581000F3E700BF64000020EA680008F7680008AA
:105820002569000870B5A1FB025434B92946FEF77A
:10583000C3F9064628B9304670BD0C220026026026
:10584000F9E72A462146FDF744FAF4E703692DE912
:10585000F043B3EB611F00F114044FEA611246DD1F
:1058600011F01F0104EB830604EB82050CD12946DD
:1058700000F11007B14235D39B1A9B00EA1E9642F5
:1058800038BF0023234415E0A14654F82270C1F12B
:105890002008CF4005F1040E7645F44616D89A1A32
:1058A0009200043A0135AE4238BF0022A318A75037
:1058B00007B10433A342A3EB040208BF00234FEA5D
:1058C000A202026108BF4361BDE8F083DCF800C0BA
:1058D0000CFA08FC4CEA070749F8047B5EF8047BE5
:1058E000CF40D9E751F804CB47F804CFC2E72346AD
:1058F000E0E7A0F13003092B02D82038C0B270478E
:10590000A0F16103052B01D84738F7E7A0F1410367
:10591000052B01D82738F1E7002070472DE9F04F1B
:1059200081468A4617460A6885B002F1020BC2F129
:10593000FF2202F57F020293FE3202EB0B03D846F0
:105940001BF8010B01933028F7D0FFF7D2FF044674
:10595000002838D101224046A749FFF70FFF06462D
:10596000002869D198F801005D46FFF7C2FF0028C2
:1059700064D05A4610789046302802F10102F9D0DE
:10598000FFF7B7FF0123B0FA80F45E466409019384
:105990004246154628780132FFF7ABFF0028F8D1C0
:1059A000012228469449FFF7E9FE78B946B96E1CF2
:1059B0003246154628780132FFF79BFF0028F8D1C0
:1059C000731B9E0004E000242646E1E7002EF7D179
:1059D0002B7803F0DF03502B3DD16B782B2B2FD08E
:1059E0002D2B31D04FF0000B691C0878FFF781FF99
:1059F000421ED2B2182A2ED8A0F1100211F8010FBF
:105A0000FFF777FF00F1FF3C5FFA8CFCBCF1180F49
:105A10001DD9BBF1000F00D052421644CAF8001045
:105A2000DCB1019B002B14BF4FF000084FF00608BB
:105A3000404605B0BDE8F08F454626460124C7E73D
:105A40004FF0000BA91CD0E74FF0010BFAE70A2337
:105A500003FB0200D0E72946E0E72146A5EB080357
:105A6000013B072B0ADC4846FEF732F9044640B9F1
:105A70000246E421614B6248FFF7B6FE01315B103C
:105A8000EFE700239B4600F1140ACDF804A0A845D7
:105A900044D3DDF80480584648F804BBA8EB0A0854
:105AA0004FEAA80222614FEA4218FEF703FA3D6866
:105AB000A8EB0008A84559DDA8EB0508414620469B
:105AC000FEF781FD8346B8B14FF0010B08F1FF33BB
:105AD00059115AF8211003F01F020BFA02F20A4280
